{
  "_format": "hh-sol-artifact-1",
  "contractName": "SampleContract",
  "sourceName": "contracts/SimpleStorage.sol",
  "abi": [
    {
      "inputs": [],
      "stateMutability": "nonpayable",
      "type": "constructor"
    },
    {
      "anonymous": false,
      "inputs": [
        {
          "indexed": true,
          "internalType": "address",
          "name": "previousOwner",
          "type": "address"
        },
        {
          "indexed": true,
          "internalType": "address",
          "name": "newOwner",
          "type": "address"
        }
      ],
      "name": "OwnershipTransferred",
      "type": "event"
    },
    {
      "inputs": [],
      "name": "get",
      "outputs": [
        {
          "internalType": "uint256",
          "name": "",
          "type": "uint256"
        }
      ],
      "stateMutability": "view",
      "type": "function"
    },
    {
      "inputs": [],
      "name": "getBalance",
      "outputs": [
        {
          "internalType": "uint256",
          "name": "",
          "type": "uint256"
        }
      ],
      "stateMutability": "view",
      "type": "function"
    },
    {
      "inputs": [],
      "name": "owner",
      "outputs": [
        {
          "internalType": "address",
          "name": "",
          "type": "address"
        }
      ],
      "stateMutability": "view",
      "type": "function"
    },
    {
      "inputs": [],
      "name": "renounceOwnership",
      "outputs": [],
      "stateMutability": "nonpayable",
      "type": "function"
    },
    {
      "inputs": [
        {
          "internalType": "uint256",
          "name": "x",
          "type": "uint256"
        }
      ],
      "name": "set",
      "outputs": [],
      "stateMutability": "nonpayable",
      "type": "function"
    },
    {
      "inputs": [
        {
          "internalType": "address",
          "name": "newOwner",
          "type": "address"
        }
      ],
      "name": "transferOwnership",
      "outputs": [],
      "stateMutability": "nonpayable",
      "type": "function"
    }
  ],
  "bytecode": "0x608060405234801561001057600080fd5b5060006100216100c460201b60201c565b9050806000806101000a81548173ffffffffffffffffffffffffffffffffffffffff021916908373ffffffffffffffffffffffffffffffffffffffff1602179055508073ffffffffffffffffffffffffffffffffffffffff16600073ffffffffffffffffffffffffffffffffffffffff167f8be0079c531659141344cd1fd0a4f28419497f9722a3daafe3b4186f6b6457e060405160405180910390a3506100cc565b600033905090565b610716806100db6000396000f3fe608060405234801561001057600080fd5b50600436106100625760003560e01c806312065fe01461006757806360fe47b1146100855780636d4ce63c146100a1578063715018a6146100bf5780638da5cb5b146100c9578063f2fde38b146100e7575b600080fd5b61006f610103565b60405161007c919061064a565b60405180910390f35b61009f600480360381019061009a9190610502565b61010b565b005b6100a9610191565b6040516100b6919061064a565b60405180910390f35b6100c761019b565b005b6100d16102d5565b6040516100de91906105ef565b60405180910390f35b61010160048036038101906100fc91906104d9565b6102fe565b005b600047905090565b6101136104a7565b73ffffffffffffffffffffffffffffffffffffffff166101316102d5565b73ffffffffffffffffffffffffffffffffffffffff1614610187576040517f08c379a000000000000000000000000000000000000000000000000000000000815260040161017e9061062a565b60405180910390fd5b8060018190555050565b6000600154905090565b6101a36104a7565b73ffffffffffffffffffffffffffffffffffffffff166101c16102d5565b73ffffffffffffffffffffffffffffffffffffffff1614610217576040517f08c379a000000000000000000000000000000000000000000000000000000000815260040161020e9061062a565b60405180910390fd5b600073ffffffffffffffffffffffffffffffffffffffff1660008054906101000a900473ffffffffffffffffffffffffffffffffffffffff1673ffffffffffffffffffffffffffffffffffffffff167f8be0079c531659141344cd1fd0a4f28419497f9722a3daafe3b4186f6b6457e060405160405180910390a360008060006101000a81548173ffffffffffffffffffffffffffffffffffffffff021916908373ffffffffffffffffffffffffffffffffffffffff160217905550565b60008060009054906101000a900473ffffffffffffffffffffffffffffffffffffffff16905090565b6103066104a7565b73ffffffffffffffffffffffffffffffffffffffff166103246102d5565b73ffffffffffffffffffffffffffffffffffffffff161461037a576040517f08c379a00000000000000000000000000000000000000000000000000000000081526004016103719061062a565b60405180910390fd5b600073ffffffffffffffffffffffffffffffffffffffff168173ffffffffffffffffffffffffffffffffffffffff1614156103ea576040517f08c379a00000000000000000000000000000000000000000000000000000000081526004016103e19061060a565b60405180910390fd5b8073ffffffffffffffffffffffffffffffffffffffff1660008054906101000a900473ffffffffffffffffffffffffffffffffffffffff1673ffffffffffffffffffffffffffffffffffffffff167f8be0079c531659141344cd1fd0a4f28419497f9722a3daafe3b4186f6b6457e060405160405180910390a3806000806101000a81548173ffffffffffffffffffffffffffffffffffffffff021916908373ffffffffffffffffffffffffffffffffffffffff16021790555050565b600033905090565b6000813590506104be816106b2565b92915050565b6000813590506104d3816106c9565b92915050565b6000602082840312156104eb57600080fd5b60006104f9848285016104af565b91505092915050565b60006020828403121561051457600080fd5b6000610522848285016104c4565b91505092915050565b61053481610676565b82525050565b6000610547602683610665565b91507f4f776e61626c653a206e6577206f776e657220697320746865207a65726f206160008301527f64647265737300000000000000000000000000000000000000000000000000006020830152604082019050919050565b60006105ad602083610665565b91507f4f776e61626c653a2063616c6c6572206973206e6f7420746865206f776e65726000830152602082019050919050565b6105e9816106a8565b82525050565b6000602082019050610604600083018461052b565b92915050565b600060208201905081810360008301526106238161053a565b9050919050565b60006020820190508181036000830152610643816105a0565b9050919050565b600060208201905061065f60008301846105e0565b92915050565b600082825260208201905092915050565b600061068182610688565b9050919050565b600073ffffffffffffffffffffffffffffffffffffffff82169050919050565b6000819050919050565b6106bb81610676565b81146106c657600080fd5b50565b6106d2816106a8565b81146106dd57600080fd5b5056fea264697066735822122042128d859df019cd99657a1a891a33a9a8858a4eed5bbc49027fd10e980f701d64736f6c63430008000033",
  "linkReferences": {},
  "deployedLinkReferences": {}
}